{
  "abi": [
    {
      "inputs": [],
      "stateMutability": "nonpayable",
      "type": "constructor"
    },
    {
      "anonymous": false,
      "inputs": [
        {
          "indexed": true,
          "internalType": "address",
          "name": "owner",
          "type": "address"
        },
        {
          "indexed": true,
          "internalType": "address",
          "name": "spender",
          "type": "address"
        },
        {
          "indexed": false,
          "internalType": "uint256",
          "name": "value",
          "type": "uint256"
        }
      ],
      "name": "Approval",
      "type": "event"
    },
    {
      "anonymous": false,
      "inputs": [
        {
          "indexed": true,
          "internalType": "address",
          "name": "from",
          "type": "address"
        },
        {
          "indexed": true,
          "internalType": "address",
          "name": "to",
          "type": "address"
        },
        {
          "indexed": false,
          "internalType": "uint256",
          "name": "value",
          "type": "uint256"
        }
      ],
      "name": "Transfer",
      "type": "event"
    },
    {
      "inputs": [
        {
          "internalType": "address",
          "name": "owner",
          "type": "address"
        },
        {
          "internalType": "address",
          "name": "spender",
          "type": "address"
        }
      ],
      "name": "allowance",
      "outputs": [
        {
          "internalType": "uint256",
          "name": "",
          "type": "uint256"
        }
      ],
      "stateMutability": "view",
      "type": "function"
    },
    {
      "inputs": [
        {
          "internalType": "address",
          "name": "spender",
          "type": "address"
        },
        {
          "internalType": "uint256",
          "name": "amount",
          "type": "uint256"
        }
      ],
      "name": "approve",
      "outputs": [
        {
          "internalType": "bool",
          "name": "",
          "type": "bool"
        }
      ],
      "stateMutability": "nonpayable",
      "type": "function"
    },
    {
      "inputs": [
        {
          "internalType": "address",
          "name": "account",
          "type": "address"
        }
      ],
      "name": "balanceOf",
      "outputs": [
        {
          "internalType": "uint256",
          "name": "",
          "type": "uint256"
        }
      ],
      "stateMutability": "view",
      "type": "function"
    },
    {
      "inputs": [],
      "name": "decimals",
      "outputs": [
        {
          "internalType": "uint8",
          "name": "",
          "type": "uint8"
        }
      ],
      "stateMutability": "view",
      "type": "function"
    },
    {
      "inputs": [
        {
          "internalType": "address",
          "name": "spender",
          "type": "address"
        },
        {
          "internalType": "uint256",
          "name": "subtractedValue",
          "type": "uint256"
        }
      ],
      "name": "decreaseAllowance",
      "outputs": [
        {
          "internalType": "bool",
          "name": "",
          "type": "bool"
        }
      ],
      "stateMutability": "nonpayable",
      "type": "function"
    },
    {
      "inputs": [
        {
          "internalType": "uint256",
          "name": "amount",
          "type": "uint256"
        },
        {
          "internalType": "address",
          "name": "acc",
          "type": "address"
        }
      ],
      "name": "getFaucet",
      "outputs": [],
      "stateMutability": "nonpayable",
      "type": "function"
    },
    {
      "inputs": [
        {
          "internalType": "address",
          "name": "spender",
          "type": "address"
        },
        {
          "internalType": "uint256",
          "name": "addedValue",
          "type": "uint256"
        }
      ],
      "name": "increaseAllowance",
      "outputs": [
        {
          "internalType": "bool",
          "name": "",
          "type": "bool"
        }
      ],
      "stateMutability": "nonpayable",
      "type": "function"
    },
    {
      "inputs": [],
      "name": "name",
      "outputs": [
        {
          "internalType": "string",
          "name": "",
          "type": "string"
        }
      ],
      "stateMutability": "view",
      "type": "function"
    },
    {
      "inputs": [],
      "name": "symbol",
      "outputs": [
        {
          "internalType": "string",
          "name": "",
          "type": "string"
        }
      ],
      "stateMutability": "view",
      "type": "function"
    },
    {
      "inputs": [],
      "name": "totalSupply",
      "outputs": [
        {
          "internalType": "uint256",
          "name": "",
          "type": "uint256"
        }
      ],
      "stateMutability": "view",
      "type": "function"
    },
    {
      "inputs": [
        {
          "internalType": "address",
          "name": "to",
          "type": "address"
        },
        {
          "internalType": "uint256",
          "name": "amount",
          "type": "uint256"
        }
      ],
      "name": "transfer",
      "outputs": [
        {
          "internalType": "bool",
          "name": "",
          "type": "bool"
        }
      ],
      "stateMutability": "nonpayable",
      "type": "function"
    },
    {
      "inputs": [
        {
          "internalType": "address",
          "name": "from",
          "type": "address"
        },
        {
          "internalType": "address",
          "name": "to",
          "type": "address"
        },
        {
          "internalType": "uint256",
          "name": "amount",
          "type": "uint256"
        }
      ],
      "name": "transferFrom",
      "outputs": [
        {
          "internalType": "bool",
          "name": "",
          "type": "bool"
        }
      ],
      "stateMutability": "nonpayable",
      "type": "function"
    }
  ],
  "bytecode": {
    "object": "0x60806040523480156200001157600080fd5b50604080518082018252600981526815195cdd081554d11560ba1b6020808301918252835180850190945260068452651d0b9554d11560d21b90840152815191929162000061916003916200015e565b508051620000779060049060208401906200015e565b5050506200009233655a0a3bd530006200009860201b60201c565b62000268565b6001600160a01b038216620000f35760405162461bcd60e51b815260206004820152601f60248201527f45524332303a206d696e7420746f20746865207a65726f206164647265737300604482015260640160405180910390fd5b806002600082825462000107919062000204565b90915550506001600160a01b038216600081815260208181526040808320805486019055518481527fddf252ad1be2c89b69c2b068fc378daa952ba7f163c4a11628f55a4df523b3ef910160405180910390a35050565b8280546200016c906200022b565b90600052602060002090601f016020900481019282620001905760008555620001db565b82601f10620001ab57805160ff1916838001178555620001db565b82800160010185558215620001db579182015b82811115620001db578251825591602001919060010190620001be565b50620001e9929150620001ed565b5090565b5b80821115620001e95760008155600101620001ee565b600082198211156200022657634e487b7160e01b600052601160045260246000fd5b500190565b600181811c908216806200024057607f821691505b602082108114156200026257634e487b7160e01b600052602260045260246000fd5b50919050565b61096d80620002786000396000f3fe608060405234801561001057600080fd5b50600436106100b45760003560e01c80633950935111610071578063395093511461014357806370a082311461015657806395d89b411461017f578063a457c2d714610187578063a9059cbb1461019a578063dd62ed3e146101ad57600080fd5b806306fdde03146100b9578063095ea7b3146100d75780630f25b732146100fa57806318160ddd1461010f57806323b872dd14610121578063313ce56714610134575b600080fd5b6100c16101c0565b6040516100ce9190610881565b60405180910390f35b6100ea6100e5366004610834565b610252565b60405190151581526020016100ce565b61010d61010836600461085e565b61026a565b005b6002545b6040519081526020016100ce565b6100ea61012f3660046107f8565b610278565b604051600681526020016100ce565b6100ea610151366004610834565b61029c565b6101136101643660046107a3565b6001600160a01b031660009081526020819052604090205490565b6100c16102be565b6100ea610195366004610834565b6102cd565b6100ea6101a8366004610834565b61034d565b6101136101bb3660046107c5565b61035b565b6060600380546101cf906108fc565b80601f01602080910402602001604051908101604052809291908181526020018280546101fb906108fc565b80156102485780601f1061021d57610100808354040283529160200191610248565b820191906000526020600020905b81548152906001019060200180831161022b57829003601f168201915b5050505050905090565b600033610260818585610386565b5060019392505050565b61027481836104aa565b5050565b600033610286858285610569565b6102918585856105e3565b506001949350505050565b6000336102608185856102af838361035b565b6102b991906108d6565b610386565b6060600480546101cf906108fc565b600033816102db828661035b565b9050838110156103405760405162461bcd60e51b815260206004820152602560248201527f45524332303a2064656372656173656420616c6c6f77616e63652062656c6f77604482015264207a65726f60d81b60648201526084015b60405180910390fd5b6102918286868403610386565b6000336102608185856105e3565b6001600160a01b03918216600090815260016020908152604080832093909416825291909152205490565b6001600160a01b0383166103e85760405162461bcd60e51b8152602060048201526024808201527f45524332303a20617070726f76652066726f6d20746865207a65726f206164646044820152637265737360e01b6064820152608401610337565b6001600160a01b0382166104495760405162461bcd60e51b815260206004820152602260248201527f45524332303a20617070726f766520746f20746865207a65726f206164647265604482015261737360f01b6064820152608401610337565b6001600160a01b0383811660008181526001602090815260408083209487168084529482529182902085905590518481527f8c5be1e5ebec7d5bd14f71427d1e84f3dd0314c0f7b2291e5b200ac8c7c3b925910160405180910390a3505050565b6001600160a01b0382166105005760405162461bcd60e51b815260206004820152601f60248201527f45524332303a206d696e7420746f20746865207a65726f2061646472657373006044820152606401610337565b806002600082825461051291906108d6565b90915550506001600160a01b038216600081815260208181526040808320805486019055518481527fddf252ad1be2c89b69c2b068fc378daa952ba7f163c4a11628f55a4df523b3ef910160405180910390a35050565b6000610575848461035b565b905060001981146105dd57818110156105d05760405162461bcd60e51b815260206004820152601d60248201527f45524332303a20696e73756666696369656e7420616c6c6f77616e63650000006044820152606401610337565b6105dd8484848403610386565b50505050565b6001600160a01b0383166106475760405162461bcd60e51b815260206004820152602560248201527f45524332303a207472616e736665722066726f6d20746865207a65726f206164604482015264647265737360d81b6064820152608401610337565b6001600160a01b0382166106a95760405162461bcd60e51b815260206004820152602360248201527f45524332303a207472616e7366657220746f20746865207a65726f206164647260448201526265737360e81b6064820152608401610337565b6001600160a01b038316600090815260208190526040902054818110156107215760405162461bcd60e51b815260206004820152602660248201527f45524332303a207472616e7366657220616d6f756e7420657863656564732062604482015265616c616e636560d01b6064820152608401610337565b6001600160a01b03848116600081815260208181526040808320878703905593871680835291849020805487019055925185815290927fddf252ad1be2c89b69c2b068fc378daa952ba7f163c4a11628f55a4df523b3ef910160405180910390a36105dd565b80356001600160a01b038116811461079e57600080fd5b919050565b6000602082840312156107b557600080fd5b6107be82610787565b9392505050565b600080604083850312156107d857600080fd5b6107e183610787565b91506107ef60208401610787565b90509250929050565b60008060006060848603121561080d57600080fd5b61081684610787565b925061082460208501610787565b9150604084013590509250925092565b6000806040838503121561084757600080fd5b61085083610787565b946020939093013593505050565b6000806040838503121561087157600080fd5b823591506107ef60208401610787565b600060208083528351808285015260005b818110156108ae57858101830151858201604001528201610892565b818111156108c0576000604083870101525b50601f01601f1916929092016040019392505050565b600082198211156108f757634e487b7160e01b600052601160045260246000fd5b500190565b600181811c9082168061091057607f821691505b6020821081141561093157634e487b7160e01b600052602260045260246000fd5b5091905056fea26469706673582212203d7e8f7a670e763992fe8a4d4143079b5e67213c7bbe042c1fd8e80e594fafdf64736f6c63430008060033",
    "linkReferences": {}
  },
  "methodIdentifiers": {
    "allowance(address,address)": "dd62ed3e",
    "approve(address,uint256)": "095ea7b3",
    "balanceOf(address)": "70a08231",
    "decimals()": "313ce567",
    "decreaseAllowance(address,uint256)": "a457c2d7",
    "getFaucet(uint256,address)": "0f25b732",
    "increaseAllowance(address,uint256)": "39509351",
    "name()": "06fdde03",
    "symbol()": "95d89b41",
    "totalSupply()": "18160ddd",
    "transfer(address,uint256)": "a9059cbb",
    "transferFrom(address,address,uint256)": "23b872dd"
  },
  "id": 11
}