{
  "abi": [
    {
      "inputs": [
        {
          "internalType": "uint16",
          "name": "settlementNumberToAccepte",
          "type": "uint16"
        }
      ],
      "name": "acceptSettlemen",
      "outputs": [],
      "stateMutability": "nonpayable",
      "type": "function"
    },
    {
      "inputs": [
        {
          "internalType": "uint16",
          "name": "settlementNumberToCancel",
          "type": "uint16"
        }
      ],
      "name": "cancelSettlement",
      "outputs": [],
      "stateMutability": "nonpayable",
      "type": "function"
    },
    {
      "inputs": [
        {
          "components": [
            {
              "internalType": "address",
              "name": "tokenRequested",
              "type": "address"
            },
            {
              "internalType": "address",
              "name": "paymentToken",
              "type": "address"
            },
            {
              "internalType": "address",
              "name": "creator",
              "type": "address"
            },
            {
              "internalType": "address",
              "name": "auditor",
              "type": "address"
            },
            {
              "internalType": "string",
              "name": "settlement",
              "type": "string"
            },
            {
              "internalType": "uint256",
              "name": "amountRequested",
              "type": "uint256"
            },
            {
              "internalType": "uint256",
              "name": "offer",
              "type": "uint256"
            },
            {
              "internalType": "bool",
              "name": "completed",
              "type": "bool"
            },
            {
              "internalType": "bool",
              "name": "canceled",
              "type": "bool"
            }
          ],
          "internalType": "struct Unhacked.Settlement",
          "name": "settlement",
          "type": "tuple"
        }
      ],
      "name": "createSettlement",
      "outputs": [
        {
          "internalType": "uint16",
          "name": "index",
          "type": "uint16"
        }
      ],
      "stateMutability": "nonpayable",
      "type": "function"
    },
    {
      "inputs": [
        {
          "internalType": "uint16",
          "name": "settlementNumberToQuery",
          "type": "uint16"
        }
      ],
      "name": "getSettlementTerms",
      "outputs": [
        {
          "components": [
            {
              "internalType": "address",
              "name": "tokenRequested",
              "type": "address"
            },
            {
              "internalType": "address",
              "name": "paymentToken",
              "type": "address"
            },
            {
              "internalType": "address",
              "name": "creator",
              "type": "address"
            },
            {
              "internalType": "address",
              "name": "auditor",
              "type": "address"
            },
            {
              "internalType": "string",
              "name": "settlement",
              "type": "string"
            },
            {
              "internalType": "uint256",
              "name": "amountRequested",
              "type": "uint256"
            },
            {
              "internalType": "uint256",
              "name": "offer",
              "type": "uint256"
            },
            {
              "internalType": "bool",
              "name": "completed",
              "type": "bool"
            },
            {
              "internalType": "bool",
              "name": "canceled",
              "type": "bool"
            }
          ],
          "internalType": "struct Unhacked.Settlement",
          "name": "settlement",
          "type": "tuple"
        }
      ],
      "stateMutability": "view",
      "type": "function"
    }
  ],
  "bytecode": {
    "object": "0x608060405234801561001057600080fd5b50610f8a806100206000396000f3fe608060405234801561001057600080fd5b506004361061004c5760003560e01c806366c8a9f3146100515780639f5c04c11461007a578063b2adc0361461008f578063b7c7428c146100b5575b600080fd5b61006461005f366004610b4a565b6100c8565b6040516100719190610bc2565b60405180910390f35b61008d610088366004610b4a565b610251565b005b6100a261009d366004610d81565b6105c1565b60405161ffff9091168152602001610071565b61008d6100c3366004610b4a565b6107f2565b60408051610120810182526000808252602082018190529181018290526060808201839052608082015260a0810182905260c0810182905260e0810182905261010081019190915260018261ffff168154811061012757610127610e6e565b60009182526020918290206040805161012081018252600890930290910180546001600160a01b039081168452600182015481169484019490945260028101548416918301919091526003810154909216606082015260048201805491929160808401919061019590610e84565b80601f01602080910402602001604051908101604052809291908181526020018280546101c190610e84565b801561020e5780601f106101e35761010080835404028352916020019161020e565b820191906000526020600020905b8154815290600101906020018083116101f157829003601f168201915b5050509183525050600582015460208201526006820154604082015260079091015460ff8082161515606084015261010090910416151560809091015292915050565b600060018261ffff168154811061026a5761026a610e6e565b60009182526020918290206040805161012081018252600890930290910180546001600160a01b03908116845260018201548116948401949094526002810154841691830191909152600381015490921660608201526004820180549192916080840191906102d890610e84565b80601f016020809104026020016040519081016040528092919081815260200182805461030490610e84565b80156103515780601f1061032657610100808354040283529160200191610351565b820191906000526020600020905b81548152906001019060200180831161033457829003601f168201915b5050509183525050600582015460208201526006820154604082015260079091015460ff80821615156060808501919091526101009092041615156080909201919091528101519091506001600160a01b031633146103f75760405162461bcd60e51b815260206004820152601960248201527f43616c6c6572206973206e6f74207468652061756469746f720000000000000060448201526064015b60405180910390fd5b60e0810151156104195760405162461bcd60e51b81526004016103ee90610ebe565b610100810151156104765760405162461bcd60e51b815260206004820152602160248201527f5468697320736574746c656d656e7420686173206265656e2063616e63656c656044820152601960fa1b60648201526084016103ee565b6001808361ffff168154811061048e5761048e610e6e565b60009182526020909120600890910201600701805460ff1916911515919091179055805160408083015160a084015191516323b872dd60e01b81523360048201526001600160a01b0391821660248201526044810192909252909116906323b872dd906064016020604051808303816000875af1158015610513573d6000803e3d6000fd5b505050506040513d601f19601f820116820180604052508101906105379190610f08565b506020810151606082015160c083015160405163a9059cbb60e01b81526001600160a01b039283166004820152602481019190915291169063a9059cbb906044015b6020604051808303816000875af1158015610598573d6000803e3d6000fd5b505050506040513d601f19601f820116820180604052508101906105bc9190610f08565b505050565b602081015160c08201516040516323b872dd60e01b815233600482015230602482015260448101919091526000916001600160a01b0316906323b872dd906064016020604051808303816000875af1158015610621573d6000803e3d6000fd5b505050506040513d601f19601f820116820180604052508101906106459190610f08565b5060018054808201825560009190915282517fb10e2d527612073b26eecdfd717e6a320cf44b4afac2b0732d9fcbe2b7fa0cf6600890920291820180546001600160a01b03199081166001600160a01b039384161782556020808701517fb10e2d527612073b26eecdfd717e6a320cf44b4afac2b0732d9fcbe2b7fa0cf786018054841691861691909117905560408701517fb10e2d527612073b26eecdfd717e6a320cf44b4afac2b0732d9fcbe2b7fa0cf886018054841691861691909117905560608701517fb10e2d527612073b26eecdfd717e6a320cf44b4afac2b0732d9fcbe2b7fa0cf98601805490931694169390931790556080850151805186949293610775937fb10e2d527612073b26eecdfd717e6a320cf44b4afac2b0732d9fcbe2b7fa0cfa01920190610ab1565b5060a0820151600582015560c0820151600682015560e0820151600790910180546101009384015161ffff1990911692151561ff001916929092179115159092021790556000805461ffff16908190806107ce83610f25565b91906101000a81548161ffff021916908361ffff1602179055505080915050919050565b600060018261ffff168154811061080b5761080b610e6e565b60009182526020918290206040805161012081018252600890930290910180546001600160a01b039081168452600182015481169484019490945260028101548416918301919091526003810154909216606082015260048201805491929160808401919061087990610e84565b80601f01602080910402602001604051908101604052809291908181526020018280546108a590610e84565b80156108f25780601f106108c7576101008083540402835291602001916108f2565b820191906000526020600020905b8154815290600101906020018083116108d557829003601f168201915b505050918352505060058201546020820152600682015460408083019190915260079092015460ff808216151560608401526101009091041615156080909101528101519091506001600160a01b0316331461099c5760405162461bcd60e51b8152602060048201526024808201527f43616c6c6572206973206e6f742074686520736574746c656d656e742063726560448201526330ba37b960e11b60648201526084016103ee565b61010081015115610a015760405162461bcd60e51b815260206004820152602960248201527f5468697320736574746c656d656e742068617320616c7265616479206265656e6044820152680818d85b98d95b195960ba1b60648201526084016103ee565b60e081015115610a235760405162461bcd60e51b81526004016103ee90610ebe565b6001808361ffff1681548110610a3b57610a3b610e6e565b906000526020600020906008020160070160016101000a81548160ff02191690831515021790555080602001516001600160a01b031663a9059cbb82604001518360c001516040518363ffffffff1660e01b81526004016105799291906001600160a01b03929092168252602082015260400190565b828054610abd90610e84565b90600052602060002090601f016020900481019282610adf5760008555610b25565b82601f10610af857805160ff1916838001178555610b25565b82800160010185558215610b25579182015b82811115610b25578251825591602001919060010190610b0a565b50610b31929150610b35565b5090565b5b80821115610b315760008155600101610b36565b600060208284031215610b5c57600080fd5b813561ffff81168114610b6e57600080fd5b9392505050565b6000815180845260005b81811015610b9b57602081850181015186830182015201610b7f565b81811115610bad576000602083870101525b50601f01601f19169290920160200192915050565b60208152610bdc6020820183516001600160a01b03169052565b60006020830151610bf860408401826001600160a01b03169052565b5060408301516001600160a01b03811660608401525060608301516001600160a01b03811660808401525060808301516101208060a0850152610c3f610140850183610b75565b915060a085015160c085015260c085015160e085015260e0850151610100610c6a8187018315159052565b90950151151593019290925250919050565b634e487b7160e01b600052604160045260246000fd5b604051610120810167ffffffffffffffff81118282101715610cb657610cb6610c7c565b60405290565b80356001600160a01b0381168114610cd357600080fd5b919050565b600082601f830112610ce957600080fd5b813567ffffffffffffffff80821115610d0457610d04610c7c565b604051601f8301601f19908116603f01168101908282118183101715610d2c57610d2c610c7c565b81604052838152866020858801011115610d4557600080fd5b836020870160208301376000602085830101528094505050505092915050565b8015158114610d7357600080fd5b50565b8035610cd381610d65565b600060208284031215610d9357600080fd5b813567ffffffffffffffff80821115610dab57600080fd5b908301906101208286031215610dc057600080fd5b610dc8610c92565b610dd183610cbc565b8152610ddf60208401610cbc565b6020820152610df060408401610cbc565b6040820152610e0160608401610cbc565b6060820152608083013582811115610e1857600080fd5b610e2487828601610cd8565b60808301525060a083013560a082015260c083013560c0820152610e4a60e08401610d76565b60e08201526101009150610e5f828401610d76565b91810191909152949350505050565b634e487b7160e01b600052603260045260246000fd5b600181811c90821680610e9857607f821691505b602082108103610eb857634e487b7160e01b600052602260045260246000fd5b50919050565b6020808252602a908201527f5468697320736574746c656d656e742068617320616c7265616479206265656e6040820152690818dbdb5c1b195d195960b21b606082015260800190565b600060208284031215610f1a57600080fd5b8151610b6e81610d65565b600061ffff808316818103610f4a57634e487b7160e01b600052601160045260246000fd5b600101939250505056fea2646970667358221220de79832c691df332c88fd36c84ff081ad988a05be77833ae2c3763776be7d30c64736f6c634300080d0033",
    "linkReferences": {}
  },
  "methodIdentifiers": {
    "acceptSettlemen(uint16)": "9f5c04c1",
    "cancelSettlement(uint16)": "b7c7428c",
    "createSettlement((address,address,address,address,string,uint256,uint256,bool,bool))": "b2adc036",
    "getSettlementTerms(uint16)": "66c8a9f3"
  },
  "id": 12
}