{
  "abi": [
    {
      "inputs": [
        {
          "internalType": "uint16",
          "name": "settlementNumberToAccepte",
          "type": "uint16"
        }
      ],
      "name": "acceptSettlemen",
      "outputs": [],
      "stateMutability": "nonpayable",
      "type": "function"
    },
    {
      "inputs": [
        {
          "internalType": "uint16",
          "name": "settlementNumberToCancel",
          "type": "uint16"
        }
      ],
      "name": "cancelSettlement",
      "outputs": [],
      "stateMutability": "nonpayable",
      "type": "function"
    },
    {
      "inputs": [
        {
          "components": [
            {
              "internalType": "address",
              "name": "tokenRequested",
              "type": "address"
            },
            {
              "internalType": "address",
              "name": "paymentToken",
              "type": "address"
            },
            {
              "internalType": "address",
              "name": "creator",
              "type": "address"
            },
            {
              "internalType": "address",
              "name": "auditor",
              "type": "address"
            },
            {
              "internalType": "string",
              "name": "settlement",
              "type": "string"
            },
            {
              "internalType": "uint256",
              "name": "amountRequested",
              "type": "uint256"
            },
            {
              "internalType": "uint256",
              "name": "offer",
              "type": "uint256"
            },
            {
              "internalType": "bool",
              "name": "completed",
              "type": "bool"
            },
            {
              "internalType": "bool",
              "name": "canceled",
              "type": "bool"
            }
          ],
          "internalType": "struct Unhacked.Settlement",
          "name": "settlement",
          "type": "tuple"
        }
      ],
      "name": "createSettlement",
      "outputs": [
        {
          "internalType": "uint16",
          "name": "index",
          "type": "uint16"
        }
      ],
      "stateMutability": "nonpayable",
      "type": "function"
    },
    {
      "inputs": [
        {
          "internalType": "uint16",
          "name": "settlementNumberToQuery",
          "type": "uint16"
        }
      ],
      "name": "getSettlementTerms",
      "outputs": [
        {
          "components": [
            {
              "internalType": "address",
              "name": "tokenRequested",
              "type": "address"
            },
            {
              "internalType": "address",
              "name": "paymentToken",
              "type": "address"
            },
            {
              "internalType": "address",
              "name": "creator",
              "type": "address"
            },
            {
              "internalType": "address",
              "name": "auditor",
              "type": "address"
            },
            {
              "internalType": "string",
              "name": "settlement",
              "type": "string"
            },
            {
              "internalType": "uint256",
              "name": "amountRequested",
              "type": "uint256"
            },
            {
              "internalType": "uint256",
              "name": "offer",
              "type": "uint256"
            },
            {
              "internalType": "bool",
              "name": "completed",
              "type": "bool"
            },
            {
              "internalType": "bool",
              "name": "canceled",
              "type": "bool"
            }
          ],
          "internalType": "struct Unhacked.Settlement",
          "name": "settlement",
          "type": "tuple"
        }
      ],
      "stateMutability": "view",
      "type": "function"
    }
  ],
  "bytecode": {
    "object": "0x608060405234801561001057600080fd5b50610fca806100206000396000f3fe608060405234801561001057600080fd5b506004361061004c5760003560e01c806366c8a9f3146100515780639f5c04c11461007a578063b2adc0361461008f578063b7c7428c146100b5575b600080fd5b61006461005f366004610d4d565b6100c8565b6040516100719190610e08565b60405180910390f35b61008d610088366004610d4d565b610251565b005b6100a261009d366004610c60565b6105df565b60405161ffff9091168152602001610071565b61008d6100c3366004610d4d565b610830565b60408051610120810182526000808252602082018190529181018290526060808201839052608082015260a0810182905260c0810182905260e0810182905261010081019190915260018261ffff168154811061012757610127610f57565b60009182526020918290206040805161012081018252600890930290910180546001600160a01b039081168452600182015481169484019490945260028101548416918301919091526003810154909216606082015260048201805491929160808401919061019590610eec565b80601f01602080910402602001604051908101604052809291908181526020018280546101c190610eec565b801561020e5780601f106101e35761010080835404028352916020019161020e565b820191906000526020600020905b8154815290600101906020018083116101f157829003601f168201915b5050509183525050600582015460208201526006820154604082015260079091015460ff8082161515606084015261010090910416151560809091015292915050565b600060018261ffff168154811061026a5761026a610f57565b60009182526020918290206040805161012081018252600890930290910180546001600160a01b03908116845260018201548116948401949094526002810154841691830191909152600381015490921660608201526004820180549192916080840191906102d890610eec565b80601f016020809104026020016040519081016040528092919081815260200182805461030490610eec565b80156103515780601f1061032657610100808354040283529160200191610351565b820191906000526020600020905b81548152906001019060200180831161033457829003601f168201915b5050509183525050600582015460208201526006820154604082015260079091015460ff80821615156060808501919091526101009092041615156080909201919091528101519091506001600160a01b031633146103f75760405162461bcd60e51b815260206004820152601960248201527f43616c6c6572206973206e6f74207468652061756469746f720000000000000060448201526064015b60405180910390fd5b60e0810151156104195760405162461bcd60e51b81526004016103ee90610dbe565b610100810151156104765760405162461bcd60e51b815260206004820152602160248201527f5468697320736574746c656d656e7420686173206265656e2063616e63656c656044820152601960fa1b60648201526084016103ee565b6001808361ffff168154811061048e5761048e610f57565b60009182526020909120600890910201600701805460ff1916911515919091179055805160408083015160a084015191516323b872dd60e01b81523360048201526001600160a01b0391821660248201526044810192909252909116906323b872dd90606401602060405180830381600087803b15801561050e57600080fd5b505af1158015610522573d6000803e3d6000fd5b505050506040513d601f19601f820116820180604052508101906105469190610c3c565b506020810151606082015160c083015160405163a9059cbb60e01b81526001600160a01b039283166004820152602481019190915291169063a9059cbb906044015b602060405180830381600087803b1580156105a257600080fd5b505af11580156105b6573d6000803e3d6000fd5b505050506040513d601f19601f820116820180604052508101906105da9190610c3c565b505050565b602081015160c08201516040516323b872dd60e01b815233600482015230602482015260448101919091526000916001600160a01b0316906323b872dd90606401602060405180830381600087803b15801561063a57600080fd5b505af115801561064e573d6000803e3d6000fd5b505050506040513d601f19601f820116820180604052508101906106729190610c3c565b506000610100830181905260e0830181905233604084019081526001805480820182559252835160089092027fb10e2d527612073b26eecdfd717e6a320cf44b4afac2b0732d9fcbe2b7fa0cf6810180546001600160a01b039485166001600160a01b03199182161782556020808801517fb10e2d527612073b26eecdfd717e6a320cf44b4afac2b0732d9fcbe2b7fa0cf78501805491881691841691909117905593517fb10e2d527612073b26eecdfd717e6a320cf44b4afac2b0732d9fcbe2b7fa0cf88401805491871691831691909117905560608701517fb10e2d527612073b26eecdfd717e6a320cf44b4afac2b0732d9fcbe2b7fa0cf98401805491909616911617909355608085015180518694936107b3937fb10e2d527612073b26eecdfd717e6a320cf44b4afac2b0732d9fcbe2b7fa0cfa01920190610aef565b5060a0820151600582015560c0820151600682015560e0820151600790910180546101009384015161ffff1990911692151561ff001916929092179115159092021790556000805461ffff169081908061080c83610f27565b91906101000a81548161ffff021916908361ffff1602179055505080915050919050565b600060018261ffff168154811061084957610849610f57565b60009182526020918290206040805161012081018252600890930290910180546001600160a01b03908116845260018201548116948401949094526002810154841691830191909152600381015490921660608201526004820180549192916080840191906108b790610eec565b80601f01602080910402602001604051908101604052809291908181526020018280546108e390610eec565b80156109305780601f1061090557610100808354040283529160200191610930565b820191906000526020600020905b81548152906001019060200180831161091357829003601f168201915b505050918352505060058201546020820152600682015460408083019190915260079092015460ff808216151560608401526101009091041615156080909101528101519091506001600160a01b031633146109da5760405162461bcd60e51b8152602060048201526024808201527f43616c6c6572206973206e6f742074686520736574746c656d656e742063726560448201526330ba37b960e11b60648201526084016103ee565b61010081015115610a3f5760405162461bcd60e51b815260206004820152602960248201527f5468697320736574746c656d656e742068617320616c7265616479206265656e6044820152680818d85b98d95b195960ba1b60648201526084016103ee565b60e081015115610a615760405162461bcd60e51b81526004016103ee90610dbe565b6001808361ffff1681548110610a7957610a79610f57565b906000526020600020906008020160070160016101000a81548160ff02191690831515021790555080602001516001600160a01b031663a9059cbb82604001518360c001516040518363ffffffff1660e01b81526004016105889291906001600160a01b03929092168252602082015260400190565b828054610afb90610eec565b90600052602060002090601f016020900481019282610b1d5760008555610b63565b82601f10610b3657805160ff1916838001178555610b63565b82800160010185558215610b63579182015b82811115610b63578251825591602001919060010190610b48565b50610b6f929150610b73565b5090565b5b80821115610b6f5760008155600101610b74565b80356001600160a01b0381168114610b9f57600080fd5b919050565b8035610b9f81610f83565b600082601f830112610bc057600080fd5b813567ffffffffffffffff80821115610bdb57610bdb610f6d565b604051601f8301601f19908116603f01168101908282118183101715610c0357610c03610f6d565b81604052838152866020858801011115610c1c57600080fd5b836020870160208301376000602085830101528094505050505092915050565b600060208284031215610c4e57600080fd5b8151610c5981610f83565b9392505050565b600060208284031215610c7257600080fd5b813567ffffffffffffffff80821115610c8a57600080fd5b908301906101208286031215610c9f57600080fd5b610ca7610ec2565b610cb083610b88565b8152610cbe60208401610b88565b6020820152610ccf60408401610b88565b6040820152610ce060608401610b88565b6060820152608083013582811115610cf757600080fd5b610d0387828601610baf565b60808301525060a083013560a082015260c083013560c0820152610d2960e08401610ba4565b60e08201526101009150610d3e828401610ba4565b91810191909152949350505050565b600060208284031215610d5f57600080fd5b813561ffff81168114610c5957600080fd5b6000815180845260005b81811015610d9757602081850181015186830182015201610d7b565b81811115610da9576000602083870101525b50601f01601f19169290920160200192915050565b6020808252602a908201527f5468697320736574746c656d656e742068617320616c7265616479206265656e6040820152690818dbdb5c1b195d195960b21b606082015260800190565b60208152610e226020820183516001600160a01b03169052565b60006020830151610e3e60408401826001600160a01b03169052565b5060408301516001600160a01b03811660608401525060608301516001600160a01b03811660808401525060808301516101208060a0850152610e85610140850183610d71565b915060a085015160c085015260c085015160e085015260e0850151610100610eb08187018315159052565b90950151151593019290925250919050565b604051610120810167ffffffffffffffff81118282101715610ee657610ee6610f6d565b60405290565b600181811c90821680610f0057607f821691505b60208210811415610f2157634e487b7160e01b600052602260045260246000fd5b50919050565b600061ffff80831681811415610f4d57634e487b7160e01b600052601160045260246000fd5b6001019392505050565b634e487b7160e01b600052603260045260246000fd5b634e487b7160e01b600052604160045260246000fd5b8015158114610f9157600080fd5b5056fea26469706673582212201d36c025d72f61aa809af99a7a645bb7dda5e1792c9c042f0fb97e22d2f5fa8b64736f6c63430008060033",
    "linkReferences": {}
  },
  "methodIdentifiers": {
    "acceptSettlemen(uint16)": "9f5c04c1",
    "cancelSettlement(uint16)": "b7c7428c",
    "createSettlement((address,address,address,address,string,uint256,uint256,bool,bool))": "b2adc036",
    "getSettlementTerms(uint16)": "66c8a9f3"
  },
  "id": 14
}