{
  "abi": [
    {
      "inputs": [
        {
          "internalType": "uint256",
          "name": "index",
          "type": "uint256"
        }
      ],
      "name": "IndexOutOfBounds",
      "type": "error"
    },
    {
      "inputs": [
        {
          "internalType": "uint256",
          "name": "_bountyId",
          "type": "uint256"
        },
        {
          "internalType": "uint256",
          "name": "_requestId",
          "type": "uint256"
        }
      ],
      "name": "acceptBountyRequest",
      "outputs": [],
      "stateMutability": "nonpayable",
      "type": "function"
    },
    {
      "inputs": [
        {
          "internalType": "uint256",
          "name": "",
          "type": "uint256"
        }
      ],
      "name": "bountyLedger",
      "outputs": [
        {
          "internalType": "bool",
          "name": "isClosed",
          "type": "bool"
        },
        {
          "internalType": "address",
          "name": "owner",
          "type": "address"
        },
        {
          "internalType": "uint256",
          "name": "prizeAmount",
          "type": "uint256"
        },
        {
          "internalType": "address",
          "name": "paymentToken",
          "type": "address"
        },
        {
          "internalType": "address",
          "name": "receiver",
          "type": "address"
        },
        {
          "internalType": "string",
          "name": "description",
          "type": "string"
        }
      ],
      "stateMutability": "view",
      "type": "function"
    },
    {
      "inputs": [
        {
          "internalType": "uint256",
          "name": "",
          "type": "uint256"
        },
        {
          "internalType": "uint256",
          "name": "",
          "type": "uint256"
        }
      ],
      "name": "bountyRequests",
      "outputs": [
        {
          "internalType": "address",
          "name": "hunter",
          "type": "address"
        },
        {
          "internalType": "uint256",
          "name": "amount",
          "type": "uint256"
        },
        {
          "internalType": "address",
          "name": "bountyToken",
          "type": "address"
        },
        {
          "internalType": "bool",
          "name": "isClosed",
          "type": "bool"
        }
      ],
      "stateMutability": "view",
      "type": "function"
    },
    {
      "inputs": [
        {
          "internalType": "uint256",
          "name": "_bountyId",
          "type": "uint256"
        }
      ],
      "name": "cancelBounty",
      "outputs": [],
      "stateMutability": "nonpayable",
      "type": "function"
    },
    {
      "inputs": [
        {
          "internalType": "uint256",
          "name": "_bountyId",
          "type": "uint256"
        },
        {
          "internalType": "uint256",
          "name": "_requestId",
          "type": "uint256"
        }
      ],
      "name": "cancelBountyRequest",
      "outputs": [],
      "stateMutability": "nonpayable",
      "type": "function"
    },
    {
      "inputs": [
        {
          "internalType": "uint256",
          "name": "_amount",
          "type": "uint256"
        },
        {
          "internalType": "address",
          "name": "_paymentToken",
          "type": "address"
        },
        {
          "internalType": "address",
          "name": "_receiver",
          "type": "address"
        },
        {
          "internalType": "string",
          "name": "description",
          "type": "string"
        }
      ],
      "name": "createBounty",
      "outputs": [],
      "stateMutability": "nonpayable",
      "type": "function"
    },
    {
      "inputs": [
        {
          "internalType": "uint256",
          "name": "_bountyId",
          "type": "uint256"
        },
        {
          "internalType": "uint256",
          "name": "_amount",
          "type": "uint256"
        },
        {
          "internalType": "address",
          "name": "_bountyToken",
          "type": "address"
        }
      ],
      "name": "createBountyRequest",
      "outputs": [],
      "stateMutability": "nonpayable",
      "type": "function"
    }
  ],
  "bytecode": {
    "object": "0x608060405234801561001057600080fd5b506110be806100206000396000f3fe608060405234801561001057600080fd5b506004361061007d5760003560e01c80638a58bcfe1161005b5780638a58bcfe146100fb578063e5e5dff11461010e578063e905512714610121578063fc30b7da1461013457600080fd5b806331d643ed146100825780634281b8c9146100975780635c6680a6146100e8575b600080fd5b610095610090366004610e06565b610159565b005b6100aa6100a5366004610ee2565b6102d0565b6040516100df94939291906001600160a01b039485168152602081019390935292166040820152901515606082015260800190565b60405180910390f35b6100956100f6366004610ee2565b610329565b610095610109366004610f04565b6106c8565b61009561011c366004610dd4565b61099e565b61009561012f366004610ee2565b610a31565b610147610142366004610dd4565b610b67565b6040516100df96959493929190610f86565b6040805160c08101825260008082523360208084019182529383018881526001600160a01b03888116606086019081528882166080870190815260a087018981528654600181018855968052875160059097027f290decd9548b62a8d60345a988386fc84ba6bc95484008f6362f93160ef3e563810180549751861661010002610100600160a81b0319991515999099166001600160a81b03199098169790971797909717865593517f290decd9548b62a8d60345a988386fc84ba6bc95484008f6362f93160ef3e56487015590517f290decd9548b62a8d60345a988386fc84ba6bc95484008f6362f93160ef3e565860180549184166001600160a01b031992831617905590517f290decd9548b62a8d60345a988386fc84ba6bc95484008f6362f93160ef3e56686018054919093169116179055518051939491936102c7937f290decd9548b62a8d60345a988386fc84ba6bc95484008f6362f93160ef3e56701929190910190610cf6565b50505050505050565b600160205281600052604060002081815481106102ec57600080fd5b60009182526020909120600390910201805460018201546002909201546001600160a01b039182169450919250811690600160a01b900460ff1684565b600080838154811061033d5761033d61105c565b60009182526020918290206040805160c0810182526005909302909101805460ff8116151584526001600160a01b036101009091048116948401949094526001810154918301919091526002810154831660608301526003810154909216608082015260048201805491929160a0840191906103b890611021565b80601f01602080910402602001604051908101604052809291908181526020018280546103e490611021565b80156104315780601f1061040657610100808354040283529160200191610431565b820191906000526020600020905b81548152906001019060200180831161041457829003601f168201915b505050505081525050905060006001600085815260200190815260200160002083815481106104625761046261105c565b60009182526020918290206040805160808101825260039390930290910180546001600160a01b0390811684526001820154948401949094526002015492831690820152600160a01b90910460ff1615801560608301529091506105015760405162461bcd60e51b815260206004820152601160248201527014995c5d595cdd081a5cc818db1bdcd959607a1b60448201526064015b60405180910390fd5b81602001516001600160a01b0316336001600160a01b0316146105665760405162461bcd60e51b815260206004820152601e60248201527f43616c6c6572206973206e6f742074686520626f756e7479206f776e6572000060448201526064016104f8565b60016000858154811061057b5761057b61105c565b60009182526020909120600590910201805460ff19169115159190911790556060820151815160408085015190516323b872dd60e01b81523360048201526001600160a01b03928316602482015260448101919091529116906323b872dd90606401602060405180830381600087803b1580156105f757600080fd5b505af115801561060b573d6000803e3d6000fd5b505050506040513d601f19601f8201168201806040525081019061062f9190610dab565b5060408082015160808401516020840151925163a9059cbb60e01b81526001600160a01b0391821660048201526024810193909352169063a9059cbb90604401602060405180830381600087803b15801561068957600080fd5b505af115801561069d573d6000803e3d6000fd5b505050506040513d601f19601f820116820180604052508101906106c19190610dab565b5050505050565b600083815481106106db576106db61105c565b600091825260209091206005909102015460ff161561072f5760405162461bcd60e51b815260206004820152601060248201526f109bdd5b9d1e481a5cc818db1bdcd95960821b60448201526064016104f8565b6107576040518060400160405280600681526020016529a2a72222a960d11b81525033610c4b565b6040805180820182526009815268414c4c4f57414e434560b81b60208201529051636eb1769f60e11b81523360048201523060248201526107fd91906001600160a01b0384169063dd62ed3e906044015b60206040518083038186803b1580156107c057600080fd5b505afa1580156107d4573d6000803e3d6000fd5b505050506040513d601f19601f820116820180604052508101906107f89190610ded565b610c94565b604080518082018252600e81526d2120a620a721a2902420a1a5a2a960911b602082015290516370a0823160e01b815233600482015261085191906001600160a01b038416906370a08231906024016107a8565b61087960405180604001604052806006815260200165105353d5539560d21b81525083610c94565b6040516323b872dd60e01b8152336004820152306024820152604481018390526001600160a01b038216906323b872dd90606401602060405180830381600087803b1580156108c757600080fd5b505af11580156108db573d6000803e3d6000fd5b505050506040513d601f19601f820116820180604052508101906108ff9190610dab565b50600092835260016020818152604080862081516080810183523381528084019687526001600160a01b039586169281019283526060810188815282548087018455928952939097209651600390910290960180549685166001600160a01b031990971696909617865593519185019190915591516002909301805492511515600160a01b026001600160a81b03199093169390911692909217179055565b60008082815481106109b2576109b261105c565b60009182526020909120600590910201805490915061010090046001600160a01b03163314610a235760405162461bcd60e51b815260206004820152601e60248201527f43616c6c6572206973206e6f742074686520626f756e7479206f776e6572000060448201526064016104f8565b805460ff1916600117905550565b6000828152600160205260408120805483908110610a5157610a5161105c565b6000918252602090912060039091020180549091506001600160a01b03163314610abd5760405162461bcd60e51b815260206004820152601e60248201527f4f6e6c792068756e7465722063616e2063616e63656c2072657175657374000060448201526064016104f8565b600281018054600160a01b60ff60a01b1982161790915560018201546040516323b872dd60e01b815230600482015233602482015260448101919091526001600160a01b03909116906323b872dd90606401602060405180830381600087803b158015610b2957600080fd5b505af1158015610b3d573d6000803e3d6000fd5b505050506040513d601f19601f82011682018060405250810190610b619190610dab565b50505050565b60008181548110610b7757600080fd5b60009182526020909120600590910201805460018201546002830154600384015460048501805460ff861697506101009095046001600160a01b0390811696949593811694921692610bc890611021565b80601f0160208091040260200160405190810160405280929190818152602001828054610bf490611021565b8015610c415780601f10610c1657610100808354040283529160200191610c41565b820191906000526020600020905b815481529060010190602001808311610c2457829003601f168201915b5050505050905086565b610c908282604051602401610c61929190610fd5565b60408051601f198184030181529190526020810180516001600160e01b031663319af33360e01b179052610cd5565b5050565b610c908282604051602401610caa929190610fff565b60408051601f198184030181529190526020810180516001600160e01b03166309710a9d60e41b1790525b80516a636f6e736f6c652e6c6f67602083016000808483855afa5050505050565b828054610d0290611021565b90600052602060002090601f016020900481019282610d245760008555610d6a565b82601f10610d3d57805160ff1916838001178555610d6a565b82800160010185558215610d6a579182015b82811115610d6a578251825591602001919060010190610d4f565b50610d76929150610d7a565b5090565b5b80821115610d765760008155600101610d7b565b80356001600160a01b0381168114610da657600080fd5b919050565b600060208284031215610dbd57600080fd5b81518015158114610dcd57600080fd5b9392505050565b600060208284031215610de657600080fd5b5035919050565b600060208284031215610dff57600080fd5b5051919050565b60008060008060808587031215610e1c57600080fd5b84359350610e2c60208601610d8f565b9250610e3a60408601610d8f565b9150606085013567ffffffffffffffff80821115610e5757600080fd5b818701915087601f830112610e6b57600080fd5b813581811115610e7d57610e7d611072565b604051601f8201601f19908116603f01168101908382118183101715610ea557610ea5611072565b816040528281528a6020848701011115610ebe57600080fd5b82602086016020830137600060208483010152809550505050505092959194509250565b60008060408385031215610ef557600080fd5b50508035926020909101359150565b600080600060608486031215610f1957600080fd5b8335925060208401359150610f3060408501610d8f565b90509250925092565b6000815180845260005b81811015610f5f57602081850181015186830182015201610f43565b81811115610f71576000602083870101525b50601f01601f19169290920160200192915050565b86151581526001600160a01b0386811660208301526040820186905284811660608301528316608082015260c060a08201819052600090610fc990830184610f39565b98975050505050505050565b604081526000610fe86040830185610f39565b905060018060a01b03831660208301529392505050565b6040815260006110126040830185610f39565b90508260208301529392505050565b600181811c9082168061103557607f821691505b6020821081141561105657634e487b7160e01b600052602260045260246000fd5b50919050565b634e487b7160e01b600052603260045260246000fd5b634e487b7160e01b600052604160045260246000fdfea264697066735822122081a8225ea331d827e8ba248a0e8b07e75a024ab182180f2778af49459766677b64736f6c63430008060033",
    "linkReferences": {}
  },
  "methodIdentifiers": {
    "acceptBountyRequest(uint256,uint256)": "5c6680a6",
    "bountyLedger(uint256)": "fc30b7da",
    "bountyRequests(uint256,uint256)": "4281b8c9",
    "cancelBounty(uint256)": "e5e5dff1",
    "cancelBountyRequest(uint256,uint256)": "e9055127",
    "createBounty(uint256,address,address,string)": "31d643ed",
    "createBountyRequest(uint256,uint256,address)": "8a58bcfe"
  },
  "id": 11
}